:100000000C9465000C948D000C948D000C948D0064
:100010000C948D000C948D000C948D000C948D002C
:100020000C948D000C948D000C948D000C948D001C
:100030000C948D000C948D000C948D000C948D000C
:100040000C94FF010C948D000C9465030C948D00AE
:100050000C948D000C948D000C948D000C948D00EC
:100060000C948D000C948D000000000024002700EB
:100070002A0000000000250028002B0000000000DE
:1000800023002600290004040404040404040202DA
:100090000202020203030303030302020102040833
:1000A00010204080010204081020010204081020E2
:1000B0004080000000070002010000030406000069
:1000C00000000000000000006C0411241FBECFEFF0
:1000D000D8E0DEBFCDBF11E0A0E0B1E0E4E6FCE097
:1000E00002C005900D92A83CB107D9F712E0A8EC28
:1000F000B1E001C01D92A836B107E1F710E0CAECEB
:10010000D0E004C02297FE010E942C06C83CD10713
:10011000C9F70E94A6040C9430060C940000279A9C
:100120002F9862E370E080E090E00E9453022F9AE3
:1001300027980895EF92FF920F931F937C0100E0A0
:1001400010E0C801B7010E94530284E161E00E94FF
:100150000D03C801B7010E94530284E160E00E94D0
:100160000D031F910F91FF90EF900895682F85E583
:1001700092E00E94590462E370E080E090E00E9407
:1001800053020895CF93DF93EC0103C021960E94A0
:10019000B60088818823D1F7DF91CF91089560EB75
:1001A00074E080E090E00E94530280E091E00E94C1
:1001B000C20060EB74E080E090E00E94530208957A
:1001C0000E94C2008DE00E94B6000895EF92FF9257
:1001D0000F931F93CF93DF93AB01BC01CEE8D1E027
:1001E000FE0120E080819181A281B38148175907E7
:1001F0006A077B0719F427FF06C04BC02F5F3496B0
:10020000283081F746C0022F112707FD10959EEA7E
:10021000E92E91E0F92EE00EF11E82E390E00E94BB
:100220009A00488159816A817B8185E592E00E942C
:10023000960384E091E00E94C2004991599169912E
:10024000799185E592E02AE030E00E94860580E120
:1002500091E00E94E00084E191E00E94C200F70179
:1002600080810E94B6008DE00E94B600F1E0CE3A97
:10027000DF0799F6A097000F111F000F111FC00F85
:10028000D11F488159816A817B8185E592E00E9476
:100290009603DF91CF911F910F91FF90EF900895FA
:1002A00085E592E00E94FE03892B09F456C085E59E
:1002B00092E00E9429048837C1F0893730F48133F5
:1002C00051F0823309F049C00DC0893729F18A37CE
:1002D00009F043C03AC085E592E069E171E00E940F
:1002E000E20508950E94CF00089585E592E062E25C
:1002F00071E00E94E205F894109201011092000151
:1003000028E088E190E00FB6F894A895809360000B
:100310000FBE20936000FFCF85E592E06FE271E0B1
:100320000E94E205F8948EE994EC90930101809389
:10033000000128E088E190E00FB6F894A89580933A
:1003400060000FBE20936000FFCF85E592E062E47D
:1003500071E00E94E2050E948F00089584B714BEE8
:1003600088E10FB6F89480936000109260000FBE91
:1003700084E161E00E94E7020E948F0088EC90E037
:100380000E949A0060E777E180E090E00E945302CB
:1003900060E07BE480E090E00E94E60080E191E094
:1003A0000E94E00080E591E00E94E00085E591E098
:1003B0000E94E0008AE591E00E94E0008FE591E074
:1003C0000E94E00084E691E00E94E00087E791E06F
:1003D0000E94E00080E891E00E94E00085E891E062
:1003E0000E94E0008AE891E00E94E00068EE73E07D
:1003F00080E090E00E9453020E948F0008951F92B7
:100400000F920FB60F9211242F933F934F935F9348
:100410006F937F938F939F93AF93BF932091CC0162
:100420003091CD014091CE015091CF017091D0011A
:10043000DA01C9010296A11DB11D672F6A5F6D37F0
:1004400030F06D57DA01C9010396A11DB11D60930B
:10045000D0018093CC019093CD01A093CE01B093B5
:10046000CF018091C8019091C901A091CA01B091BA
:10047000CB010196A11DB11D8093C8019093C901C4
:10048000A093CA01B093CB01BF91AF919F918F917F
:100490007F916F915F914F913F912F910F900FBE80
:1004A0000F901F9018959B01AC017FB7F894809135
:1004B000C8019091C901A091CA01B091CB0166B564
:1004C000A89B05C06F3F19F00196A11DB11D7FBF0C
:1004D000BA2FA92F982F8827860F911DA11DB11D16
:1004E00063E0880F991FAA1FBB1F6A95D1F7BC0153
:1004F0002DC0FFB7F8948091C8019091C901A091D7
:10050000CA01B091CB01E6B5A89B05C0EF3F19F039
:100510000196A11DB11DFFBFBA2FA92F982F8827C3
:100520008E0F911DA11DB11DE3E0880F991FAA1F19
:10053000BB1FEA95D1F7861B970B885E9340C8F2E4
:10054000215030404040504068517C4F21153105CA
:100550004105510571F60895789484B5826084BD93
:1005600084B5816084BD85B5826085BD85B58160B7
:1005700085BDEEE6F0E0808181608083E1E8F0E017
:100580001082808182608083808181608083E0E846
:10059000F0E0808181608083E1EBF0E08081846025
:1005A0008083E0EBF0E0808181608083EAE7F0E027
:1005B000808184608083808182608083808181608B
:1005C00080838081806880831092C1000895482FC5
:1005D00050E0CA0184569F4FFC0124914A575F4F57
:1005E000FA0184918823C1F0E82FF0E0EE0FFF1F9D
:1005F000E859FF4FA591B491662341F49FB7F89451
:100600008C91209582238C939FBF08959FB7F89477
:100610008C91822B8C939FBF0895482F50E0CA0184
:100620008E549F4FFC012491CA0184569F4FFC01B8
:1006300034914A575F4FFA019491992309F444C0C9
:10064000222351F1233071F0243028F42130A1F01D
:10065000223011F514C02630B1F02730C1F024301B
:10066000D9F404C0809180008F7703C0809180000E
:100670008F7D8093800010C084B58F7702C084B5D1
:100680008F7D84BD09C08091B0008F7703C08091B9
:10069000B0008F7D8093B000E92FF0E0EE0FFF1FD8
:1006A000EE58FF4FA591B491662341F49FB7F8949B
:1006B0008C91309583238C939FBF08959FB7F894B6
:1006C0008C91832B8C939FBF08951F920F920FB62E
:1006D0000F9211242F933F934F938F939F93EF93F8
:1006E000FF934091C600E0915102F0915202319681
:1006F0009F012F773070319780915302909154026F
:100700002817390739F0EF52FE4F408330935202D9
:1007100020935102FF91EF919F918F914F913F91C3
:100720002F910F900FBE0F901F901895EF92FF9290
:100730000F931F938C019A01AB01DC011896ED9188
:10074000FC91199781E0E82EF12CC70152960C908C
:1007500002C0880F991F0A94E2F7808360E874E86A
:100760008EE190E00E940F06215030404040504002
:10077000CA01B90122E030E040E050E00E940F06DB
:10078000D8011496ED91FC91159730831696ED9152
:10079000FC91179720831A96ED91FC911B9720816D
:1007A000C7011E960C901E9702C0880F991F0A94CD
:1007B000E2F7282B20831A96ED91FC911B9720815C
:1007C000C7011F960C901F9702C0880F991F0A94AB
:1007D000E2F7282B20831A96ED91FC911B978081DC
:1007E00050960C9002C0EE0CFF1C0A94E2F78E2982
:1007F00080831F910F91FF90EF900895DC01129676
:10080000ED91FC911397E058FF4F21913191808138
:100810009181281B390B2F773070C9010895DC01B5
:100820001296ED91FC911397EE57FF4F2081318185
:1008300092918291E058F0408217930719F42FEFBC
:100840003FEF05C0E20FF31F8081282F30E0C90180
:100850000895DC011296ED91FC911397DF01AE57DC
:10086000BF4F2D913C911197E058FF4F80819181AE
:10087000E058F0408217930719F42FEF3FEF0BC0B9
:10088000E20FF31F80812F5F3F4F2F7730702D9342
:100890003C93282F30E0C9010895DC011296ED91B8
:1008A000FC911397EE57FF4F808191819293829331
:1008B0000895FC01A085B18521898C9190E0022EDC
:1008C00002C0959587950A94E2F780FFF6CF0484DD
:1008D000F585E02D608308958AEB91E090935602B0
:1008E0008093550281ED91E09093580280935702D6
:1008F00085EC90E090935A028093590284EC90E04A
:1009000090935C0280935B0280EC90E090935E0297
:1009100080935D0281EC90E09093600280935F028F
:1009200086EC90E0909362028093610284E0809371
:10093000630283E08093640287E08093650285E030
:100940008093660281E08093670208950E94AC0262
:100950000E94AE010E945001FDCF0F931F93CF93D1
:10096000DF938C01EB0109C02196D801ED91FC9138
:100970000190F081E02DC801099568816623A1F7F7
:10098000DF91CF911F910F910895EF92FF920F93F6
:100990001F93CF93DF938C017B01EA010CC0D70139
:1009A0006D917D01D801ED91FC910190F081E02DD8
:1009B000C80109952197209791F7DF91CF911F9159
:1009C0000F91FF90EF900895DC01ED91FC91028072
:1009D000F381E02D099508952F923F924F925F92F7
:1009E0006F927F928F929F92AF92BF92CF92DF923F
:1009F000EF92FF920F931F93DF93CF93CDB7DEB7A4
:100A0000A0970FB6F894DEBF0FBECDBF1C016A01E0
:100A10007B01411551056105710549F440E350E042
:100A200060E070E020E030E00E94950556C0882428
:100A300099245401422E55246624772401E010E0C5
:100A40000C0F1D1F080D191DC701B601A30192014E
:100A50000E94ED05F80160830894811C911CA11C83
:100A6000B11CC701B601A30192010E94ED05C901A5
:100A7000DA016C017D01C114D104E104F104F1F645
:100A800081E0E82EF12CEC0EFD1EE80CF91C3E0175
:100A90000894611C711CD501C4010197A109B10919
:100AA0006C01C818D90816C0F601EE0DFF1D408173
:100AB0004A3010F4405D01C0495C552747FD509510
:100AC000652F752FC10120E030E00E949505089444
:100AD000E108F1086E147F0439F7A0960FB6F89478
:100AE000DEBF0FBECDBFCF91DF911F910F91FF9061
:100AF000EF90DF90CF90BF90AF909F908F907F90BE
:100B00006F905F904F903F902F900895DC012115DA
:100B1000310541F4ED91FC910190F081E02D642FBD
:100B2000099508950E94EC040895EF92FF920F93A7
:100B30001F93CF93DF93EC017A018B0121153105CF
:100B400041F4E881F9810190F081E02D642F09954D
:100B50001BC02A303105B1F477FF10C04DE250E0E0
:100B600060E070E020E030E00E949505109500956F
:100B7000F094E094E11CF11C011D111DCE01B8019F
:100B8000A7012AE00E94EC04DF91CF911F910F9101
:100B9000FF90EF9008950F931F938C014DE050E06C
:100BA00060E070E020E030E00E949505C8014AE076
:100BB00050E060E070E020E030E00E9495051F9179
:100BC0000F9108950F931F938C010E94E404C801B4
:100BD0000E94CB051F910F910895A1E21A2EAA1B26
:100BE000BB1BFD010DC0AA1FBB1FEE1FFF1FA217DD
:100BF000B307E407F50720F0A21BB30BE40BF50BDA
:100C0000661F771F881F991F1A9469F76095709562
:100C1000809590959B01AC01BD01CF01089597FB94
:100C2000092E05260ED057FD04D0D7DF0AD0001CB0
:100C300038F450954095309521953F4F4F4F5F4F79
:100C40000895F6F790958095709561957F4F8F4F39
:100C50009F4F0895EE0FFF1F0590F491E02D09942A
:040C6000F894FFCF36
:100C64002B2B2B004261756420726174653A20005D
:100C74000D4154000D41544C0054657374203132BD
:100C84003300736F66745F72657365742829006539
:100C94006E7465725F626F6F746C6F6164657228E5
:100CA4002900726573657442746D323232282900EA
:100CB40041544530004154513100415443300041C6
:100CC4005452310041544E3D426C7565436F6E740D
:100CD400726F6C6C6572004154503D313233340094
:100CE4004154443000415458300041544F00004BAB
:100CF40000000096000000E1000000C20100802511
:100D04000000C012000060090000B004000032338B
:100D1400343531302A23000000005904AD04C504E1
:080D2400FE0329040F044D0435
:107E0000112484B714BE5A9ADD24FF244A9B07C06C
:107E100080910001909101018E59944C19F41092B7
:107E2000000101C0CDD08EE0C5D085E080938100F7
:107E300082E08093C00088E18093C10086E0809357
:107E4000C20083E38093C4007724739415E0612E0D
:107E5000B1E18B2EA3E09A2E9AD0803321F4B7D0D3
:107E6000DD24D39489C0813421F481E0B8D083E04B
:107E70001CC0823411F484E103C0853419F485E018
:107E8000AED07AC0853561F482D0082F10E07FD063
:107E900090E0B82EAA24A02AB12AAA0CBB1C6BC061
:107EA000863529F484E09BD080E069D065C08436B3
:107EB00009F03CC06CD06BD0082F69D08B2D99276E
:107EC000182F803718F4F50197BEE895C2E0D1E08D
:107ED0005ED089930150E1F7103718F0F50197BE95
:107EE000E89507B600FCFDCFA501A2E0B1E02C911A
:107EF00030E011968C91119790E0982F8827822B73
:107F0000932B1296FA010C0177BEE89511244E5F6F
:107F10005F4FF1E0A238BF0751F7F50167BEE89562
:107F200007B600FCFDCF87BEE89525C08437B1F4C5
:107F30002ED02DD0C82E2BD04AD0F501EC2C8F019D
:107F40000F5F1F4F84911BD0EA94F801C1F708948A
:107F5000A11CB11CCA94AC0CB11C0EC0853739F4FD
:107F600036D08EE10CD085E90AD08FE09ECF8135E6
:107F700011F488E01FD02BD080E101D06DCF982F75
:107F80008091C00085FFFCCF9093C6000895A8950E
:107F90009F2D21E007C0943028F4B09B02C026BB7F
:107FA0009F5FA8958091C00087FFF5CFF92E809143
:107FB000C6000895E0E6F0E098E19083808308959C
:107FC000269A2E9880E0F6DFEE27FF270994DFDF60
:107FD000803211F484E1D3CFD110F2CF08951F93F2
:0E7FE000182FD5DF1150E9F7F2DF1F91089539
:00000001FF

