:100000004AC06EC06DC06CC06BC06AC069C068C0B9
:1000100067C066C065C064C063C062C061C060C0C4
:10002000B8C15EC019C35EC35BC05AC059C058C0D6
:1000300057C056C000000000240027002A0000001E
:100040000000250028002B000000000023002600EF
:10005000290004040404040404040202020202024B
:10006000030303030303020201020408102040807B
:100070000102040810200102040810204080000042
:100080000007000201000003040600000000000059
:1000900000000000DD0411241FBECFEFD4E0DEBF5E
:1000A000CDBF11E0A0E0B1E0ECE0FDE002C00590C2
:1000B0000D92A63CB107D9F712E0A6ECB1E001C061
:1000C0001D92A637B107E1F710E0C6E9D0E003C002
:1000D0002297FE0115D6C439D107D1F7BED414C674
:1000E0008FCF279A2F9862E370E080E090E0A5D14F
:1000F0002F9A27980895EF92FF920F931F937C01F8
:1001000000E010E0C801B70198D184E161E04FD26E
:10011000C801B70192D184E160E049D21F910F91EB
:10012000FF90EF900895682F87E592E00BD462E38B
:1001300070E080E090E081D10895CF93DF93EC01EF
:1001400002C02196F0DF88818823D9F7DF91CF9113
:10015000089560EB74E080E090E06FD180E091E082
:10016000ECDF60EB74E080E090E067D10895E5DFBC
:100170008DE0D9DF0895EF92FF920F931F93CF93F5
:10018000DF93AB01BC01CEE8D1E0FE0120E080812D
:100190009181A281B381481759076A077B0719F437
:1001A00027FF06C042C02F5F3496283081F73DC03C
:1001B000022F112707FD10959EEAE92E91E0F92EF6
:1001C000E00EF11E82E390E096DF488159816A815A
:1001D0007B8187E592E0CED284E091E0AEDF499169
:1001E00059916991799187E592E02AE030E0FFD456
:1001F00080E191E0BCDF84E191E09FDFF701808145
:1002000092DF8DE090DFF1E0CE3ADF07D9F6A097DC
:10021000000F111F000F111FC00FD11F48815981FE
:100220006A817B8187E592E0A5D2DF91CF911F9112
:100230000F91FF90EF90089587E592E017D3892BF7
:1002400009F466C087E592E042D3823359F18333E3
:1002500030F4803371F0813309F05AC01DC0893702
:1002600009F438C08A3709F44DC0883709F050C006
:100270001BC0F8948EE994EC9093010180930001E7
:1002800028E088E190E00FB6F894A895809360008C
:100290000FBE20936000FFCF87E592E069E171E037
:1002A000B4D4089556DF089587E592E062E271E0E4
:1002B000ACD4F894109201011092000128E088E17A
:1002C00090E00FB6F894A895809360000FBE20933D
:1002D0006000FFCF87E592E06FE271E096D4F8947A
:1002E0008EE994EC909301018093000128E088E16D
:1002F00090E00FB6F894A895809360000FBE20930D
:100300006000FFCF87E592E062E471E07ED4E9DE31
:10031000089584B714BE88E10FB6F8948093600006
:10032000109260000FBE84E161E01BD1DADE88EC40
:1003300090E0E1DE60E777E180E090E07ED060E091
:1003400072EC81E090E017DF80E191E010DF80E562
:1003500091E00DDF85E591E00ADF8AE591E007DFB6
:100360008FE591E004DF84E691E001DF87E791E02B
:10037000FEDE80E891E0FBDE85E891E0F8DE8AE8C9
:1003800091E0F5DE68EE73E080E090E056D0A9DE03
:1003900008951F920F920FB60F9211242F933F933F
:1003A0004F935F936F937F938F939F93AF93BF937D
:1003B0002091CA013091CB014091CC015091CD01E7
:1003C0007091CE01DA01C9010296A11DB11D672FFE
:1003D0006A5F6D3730F06D57DA01C9010396A11DD0
:1003E000B11D6093CE018093CA019093CB01A0937D
:1003F000CC01B093CD018091C6019091C701A0912D
:10040000C801B091C9010196A11DB11D8093C6011B
:100410009093C701A093C801B093C901BF91AF9158
:100420009F918F917F916F915F914F913F912F910C
:100430000F900FBE0F901F9018959B01AC017FB7D6
:10044000F8948091C6019091C701A091C801B09124
:10045000C90166B5A89B05C06F3F19F00196A11DA3
:10046000B11D7FBFBA2FA92F982F8827860F911D06
:10047000A11DB11D63E0880F991FAA1FBB1F6A95BC
:10048000D1F7BC012DC0FFB7F8948091C6019091BF
:10049000C701A091C801B091C901E6B5A89B05C0EC
:1004A000EF3F19F00196A11DB11DFFBFBA2FA92F73
:1004B000982F88278E0F911DA11DB11DE3E0880F95
:1004C000991FAA1FBB1FEA95D1F7861B970B885E61
:1004D0009340C8F2215030404040504068517C4F1A
:1004E000211531054105510571F60895789484B5BB
:1004F000826084BD84B5816084BD85B5826085BD20
:1005000085B5816085BDEEE6F0E080818160808305
:10051000E1E8F0E0108280818260808380818160E8
:100520008083E0E8F0E0808181608083E1EBF0E0AF
:10053000808184608083E0EBF0E080818160808353
:10054000EAE7F0E08081846080838081826080833C
:100550008081816080838081806880831092C10067
:100560000895482F50E0CA0188599F4FFC012491FB
:100570004E5A5F4FFA0184918823C1F0E82FF0E0D2
:10058000EE0FFF1FEC5CFF4FA591B491662341F481
:100590009FB7F8948C91209582238C939FBF0895E8
:1005A0009FB7F8948C91822B8C939FBF0895482F0E
:1005B00050E0CA0182589F4FFC012491CA0188591A
:1005C0009F4FFC0194914E5A5F4FFA0134913323AF
:1005D00009F440C0222351F1233071F0243028F473
:1005E0002130A1F0223011F514C02630B1F02730AF
:1005F000C1F02430D9F404C0809180008F7703C00B
:10060000809180008F7D8093800010C084B58F77AB
:1006100002C084B58F7D84BD09C08091B0008F7702
:1006200003C08091B0008F7D8093B000E32FF0E095
:10063000EE0FFF1FE25CFF4FA591B4912FB7F89426
:10064000662321F48C919095892302C08C91892B8B
:100650008C932FBF089508951F920F920FB60F929B
:1006600011242F933F934F938F939F93EF93FF9377
:100670004091C60020910F02309110022F5F3F4F32
:100680002F73307080911102909112022817390750
:1006900059F0E0910F02F0911002E153FE4F4083B8
:1006A0003093100220930F02FF91EF919F918F9151
:1006B0004F913F912F910F900FBE0F901F90189563
:1006C000E0916302F0916402E05CFF4F81919191AF
:1006D00020813181821B930B8F739070892B09F0DD
:1006E000BADF08951F920F920FB60F9211242F9325
:1006F0003F934F935F936F937F938F939F93AF93AA
:10070000BF93EF93FF932091530230915402809155
:100710005502909156022817390731F48091C10093
:100720008F7D8093C10015C0E0915502F091560273
:10073000ED5EFD4F408180915502909156020196E9
:1007400060E470E092D290935602809355024093F9
:10075000C600FF91EF91BF91AF919F918F917F91D3
:100760006F915F914F913F912F910F900FBE0F901E
:100770001F901895AF92BF92DF92EF92FF920F9366
:100780001F93CF93DF93EC017A018B01DD24D39487
:1007900091E0A92EB12CEC89FD89DD2069F0C5011D
:1007A0000E8C02C0880F991F0A94E2F7808360E8DC
:1007B00074E88EE190E005C0108260E472E48FE09E
:1007C00090E0A801970164D2215030404040504051
:1007D000569547953795279580E12030380720F0CA
:1007E000DD2011F0DD24D7CFE889F9893083EA894B
:1007F000FB892083EE89FF89408121E030E0C90137
:100800000A8C02C0880F991F0A94E2F7482B408394
:10081000EE89FF894081C9010B8C02C0880F991FA6
:100820000A94E2F7482B4083EE89FF894081C90191
:100830000C8C02C0880F991F0A94E2F7482B408362
:10084000EE89FF8980810D8C02C0220F331F0A942C
:10085000E2F7209528232083DF91CF911F910F91FC
:10086000FF90EF90DF90BF90AF900895DC011C9651
:10087000ED91FC911D97E05CFF4F219131918081BA
:100880009181281B390B2F733070C9010895DC0149
:100890001C96ED91FC911D97E05CFF4F208131810A
:1008A000E054F040DF01AE5BBF4F8D919C911197FA
:1008B0002817390719F42FEF3FEF07C08D919C914E
:1008C000E80FF91F8081282F30E0C9010895DC016D
:1008D0001C96ED91FC911D97E05CFF4F20813181CA
:1008E000E054F040DF01AE5BBF4F8D919C911197BA
:1008F0002817390719F42FEF3FEF10C08D919C9105
:100900001197E80FF91F20818D919C911197019605
:100910008F73907011969C938E9330E0C901089567
:10092000FC0186859785DC01A05CBF4FFC01EE5B76
:10093000FF4F2D913C9111978081918128173907A4
:10094000C1F70895CF93DF93EC01462FEE85FF8525
:10095000E05CFF4F80819181E054F040019660E4BB
:1009600070E083D19C01DF01AE5BBF4F8D919C9104
:10097000119728173907D1F3E05CFF4F80819181EF
:10098000E054F040E80FF91F4083EE85FF85E05CFE
:10099000FF4F31832083EE89FF89208181E090E041
:1009A0000D8C02C0880F991F0A94E2F7282B208330
:1009B00081E090E0DF91CF91089510925A02109259
:1009C000590288EE93E0A0E0B0E080935B02909340
:1009D0005C02A0935D02B0935E028AEB91E090937B
:1009E0005802809357028FEC91E0909364028093B9
:1009F000630283E192E0909366028093650285EC46
:100A000090E0909368028093670284EC90E090936A
:100A10006A028093690280EC90E090936C0280936C
:100A20006B0281EC90E090936E0280936D0286ECF5
:100A300090E09093700280936F0284E08093710243
:100A400083E08093720287E08093730285E0809355
:100A5000740281E0809375020895CF93DF9346DDA1
:100A600058DCC0E6D3E0E8DB2097E9F329DEFBCFD2
:100A7000CF92DF92EF92FF920F931F93CF93DF936A
:100A80007C016B018A01C0E0D0E00FC0D6016D91FE
:100A90006D01D701ED91FC910190F081E02DC7012E
:100AA0000995C80FD91F015010400115110571F7A4
:100AB000CE01DF91CF911F910F91FF90EF90DF90CA
:100AC000CF900895EF92FF920F931F938C01DC015A
:100AD000ED91FC910190F081E02D6DE009957C0194
:100AE000D801ED91FC910190F081E02DC8016AE000
:100AF00009959C012E0D3F1DC9011F910F91FF907B
:100B0000EF900895CF93DF93DB010D900020E9F77C
:100B10001197A61BB70BEC01E881F9810280F381E4
:100B2000E02DAD010995DF91CF9108954F925F922D
:100B30007F928F929F92AF92BF92CF92DF92EF926D
:100B4000FF920F931F93DF93CF93CDB7DEB7A1979B
:100B50000FB6F894DEBF0FBECDBF2C01742ECB01B3
:100B6000223008F42AE019A231E2C32ED12CCC0E97
:100B7000DD1E822E9924AA24BB24672D752FA50182
:100B8000940186D079018A01C801B701A5019401B9
:100B90004DD0472D461B0894C108D1084A3014F4A3
:100BA000405D01C0495CF6014083E114F104010598
:100BB000110521F07E2C5F2DC801DFCFC201B601E7
:100BC000A1DFA1960FB6F894DEBF0FBECDBFCF91C7
:100BD000DF911F910F91FF90EF90DF90CF90BF902A
:100BE000AF909F908F907F905F904F900895DC0121
:100BF0002115310541F4ED91FC910190F081E02D3A
:100C0000642F0995089592DF0895EF92FF920F9354
:100C10001F937C0177DF8C01C70154DF080F191F78
:100C2000C8011F910F91FF90EF900895629FD0012E
:100C3000739FF001829FE00DF11D649FE00DF11D97
:100C4000929FF00D839FF00D749FF00D659FF00D46
:100C50009927729FB00DE11DF91F639FB00DE11D33
:100C6000F91FBD01CF011124089597FB092E072616
:100C70000AD077FD04D02ED006D000201AF470954B
:100C800061957F4F0895F6F7909581959F4F089550
:100C9000A1E21A2EAA1BBB1BFD010DC0AA1FBB1F80
:100CA000EE1FFF1FA217B307E407F50720F0A21BF2
:100CB000B30BE40BF50B661F771F881F991F1A945F
:100CC00069F760957095809590959B01AC01BD0189
:100CD000CF010895AA1BBB1B51E107C0AA1FBB1F70
:100CE000A617B70710F0A61BB70B881F991F5A95B8
:100CF000A9F780959095BC01CD010895EE0FFF1FD7
:0C0D00000590F491E02D0994F894FFCFC9
:100D0C002B2B2B004261756420726174653A2000B4
:100D1C000D4154000D41544C005465737420313214
:100D2C003300736F66745F72657365742829006590
:100D3C006E7465725F626F6F746C6F61646572283C
:100D4C002900726573657442746D32323228290041
:100D5C00415445300041545131004154433000411D
:100D6C005452310041544E3D426C7565436F6E7464
:100D7C00726F6C6C6572004154503D3132333400EB
:100D8C004154443000415458300041544F00004B02
:100D9C0000000096000000E1000000C20100802568
:100DAC000000C012000060090000B00400003233E3
:100DBC00343531302A2300000000A20438053604F3
:060DCC00670447049004D7
:101E0000112484B714BE5A9ADD24FF244A9B07C0CC
:101E100080910001909101018E59944C19F4109217
:101E2000000101C0CDD08EE0C5D085E08093810057
:101E300082E08093C00088E18093C10086E08093B7
:101E4000C20088E08093C4007724739415E0612E6B
:101E5000B1E18B2EA3E09A2E9AD0803321F4B7D033
:101E6000DD24D39489C0813421F481E0B8D083E0AB
:101E70001CC0823411F484E103C0853419F485E078
:101E8000AED07AC0853561F482D0082F10E07FD0C3
:101E900090E0B82EAA24A02AB12AAA0CBB1C6BC0C1
:101EA000863529F484E09BD080E069D065C0843613
:101EB00009F03CC06CD06BD0082F69D08B2D9927CE
:101EC000182F883118F4F50197BEE895C2E0D1E0EB
:101ED0005ED089930150E1F7183118F0F50197BEF3
:101EE000E89507B600FCFDCFA501A2E0B1E02C917A
:101EF00030E011968C91119790E0982F8827822BD3
:101F0000932B1296FA010C0177BEE89511244E5FCF
:101F10005F4FF1E0A234BF0751F7F50167BEE895C6
:101F200007B600FCFDCF87BEE89525C08437B1F425
:101F30002ED02DD0C82E2BD04AD0F501EC2C8F01FD
:101F40000F5F1F4F84911BD0EA94F801C1F70894EA
:101F5000A11CB11CCA94AC0CB11C0EC0853739F45D
:101F600036D08EE10CD083E90AD08AE09ECF81354D
:101F700011F48AE01FD02BD080E101D06DCF982FD3
:101F80008091C00085FFFCCF9093C6000895A8956E
:101F90009F2D21E007C0943028F4B09B02C026BBDF
:101FA0009F5FA8958091C00087FFF5CFF92E8091A3
:101FB000C6000895E0E6F0E098E1908380830895FC
:101FC000269A2E9880E0F6DFEE27FF270994DFDFC0
:101FD000803211F484E1D3CFD110F2CF08951F9352
:0E1FE000182FD5DF1150E9F7F2DF1F91089599
:00000001FF
