:101E000011248FE594E09EBF8DBF84B714BE81FF7F
:101E1000C7D08EE0C1D085E08EBD82E08BB988E16D
:101E20008AB986E880BD80E189B9BD9A96E020E351
:101E30003CEF54E040E23DBD2CBD58BF08B602FE69
:101E4000FDCF88B3842788BBA8959150A1F799242A
:101E50009394B5E0BB2EA1E1AA2E96D0813421F453
:101E600081E0ABD083E01CC0823411F484E103C074
:101E7000853419F485E0A1D080C0853561F484D023
:101E8000082F10E081D090E0D82ECC24C02AD12A8F
:101E9000CC0CDD1C71C0863529F484E08ED080E046
:101EA0006FD06BC0843609F03EC06ED06DD0082F65
:101EB0006BD08D2D9927182F883120F483E0F601FF
:101EC00087BFE895C2E0D1E05FD089930150E1F788
:101ED000183120F083E0F60187BFE89507B600FCD3
:101EE000FDCFA601A2E0B1E02C9130E011968C91DB
:101EF000119790E0982F8827822B932B1296FA0146
:101F00000C0197BEE89511244E5F5F4FF1E0A234BB
:101F1000BF0751F7F601B7BEE89507B600FCFDCF45
:101F2000A7BEE89529C08437B1F42ED02DD0E82E75
:101F30002BD03DD0F601FE2C8F010F5F1F4F8491F7
:101F40001FD0FA94F801C1F70894C11CD11CEA947F
:101F5000CE0CD11C12C0853739F429D08EE110D0B7
:101F600083E90ED087E09CCF813531F420D080E129
:101F700007D088E011D0FFCF1AD080E101D06DCF1B
:101F80005D9BFECF8CB90895A8955F9BFECF5C99B1
:101F900001C0A8958CB1089598E191BD81BD0895C7
:101FA000BD9AC59880E0F8DFEE27FF270994ECDFA3
:101FB000803211F484E1E4CFF3CF1F93182FE4DFD4
:0A1FC0001150E9F7F4DF1F910895B6
:0400000300001E00DB
:00000001FF
