:101E0000112484B714BE5A9ADD24FF244A9B07C0CC
:101E100080910001909101018E59944C19F4109217
:101E2000000101C0CDD08EE0C5D085E08093810057
:101E300082E08093C00088E18093C10086E08093B7
:101E4000C20088E08093C4007724739415E0612E6B
:101E5000B1E18B2EA3E09A2E9AD0803321F4B7D033
:101E6000DD24D39489C0813421F481E0B8D083E0AB
:101E70001CC0823411F484E103C0853419F485E078
:101E8000AED07AC0853561F482D0082F10E07FD0C3
:101E900090E0B82EAA24A02AB12AAA0CBB1C6BC0C1
:101EA000863529F484E09BD080E069D065C0843613
:101EB00009F03CC06CD06BD0082F69D08B2D9927CE
:101EC000182F883118F4F50197BEE895C2E0D1E0EB
:101ED0005ED089930150E1F7183118F0F50197BEF3
:101EE000E89507B600FCFDCFA501A2E0B1E02C917A
:101EF00030E011968C91119790E0982F8827822BD3
:101F0000932B1296FA010C0177BEE89511244E5FCF
:101F10005F4FF1E0A234BF0751F7F50167BEE895C6
:101F200007B600FCFDCF87BEE89525C08437B1F425
:101F30002ED02DD0C82E2BD04AD0F501EC2C8F01FD
:101F40000F5F1F4F84911BD0EA94F801C1F70894EA
:101F5000A11CB11CCA94AC0CB11C0EC0853739F45D
:101F600036D08EE10CD083E90AD08AE09ECF81354D
:101F700011F48AE01FD02BD080E101D06DCF982FD3
:101F80008091C00085FFFCCF9093C6000895A8956E
:101F90009F2D21E007C0943028F4B09B02C026BBDF
:101FA0009F5FA8958091C00087FFF5CFF92E8091A3
:101FB000C6000895E0E6F0E098E1908380830895FC
:101FC000269A2E9880E0F6DFEE27FF270994DFDFC0
:101FD000803211F484E1D3CFD110F2CF08951F9352
:0E1FE000182FD5DF1150E9F7F2DF1F91089599
:0400000300001E00DB
:00000001FF
