:020000021000EC
:10FC0000112484B714BE81FFD1D08EE0C9D085E025
:10FC10008093810082E08093C00088E18093C100DE
:10FC200086E08093C20080E18093C400279A86E03A
:10FC300020E33CEF91E0309385002093840096BB55
:10FC4000B09BFECF1F9AA8958150A9F7BB24B3940F
:10FC5000B5E0CB2EA1E1DA2E9BD0813419F481E0FE
:10FC6000B2D082C0823411F484E103C0853419F427
:10FC700085E0A9D082C0853591F48AD0082F10E0A4
:10FC800087D090E0982F8827802B912B292F221F37
:10FC90002227221F2BBF7C01EE0CFF1C6DC0863576
:10FCA00029F484E090D080E06BD067C0843609F0FE
:10FCB0003EC06ED06DD0182F6BD08F2D9927082F96
:10FCC000803E20F483E0F70187BFE895C2E0D2E0F0
:10FCD0005FD089931150E1F7003E20F083E0F701F7
:10FCE00087BFE89507B600FCFDCFA701A2E0B2E010
:10FCF0002C9130E011968C91119790E0982F8827E5
:10FD0000822B932B1296FA010C01B7BEE8951124B1
:10FD10004E5F5F4FF3E0A230BF0751F7F701C7BE58
:10FD2000E89507B600FCFDCFD7BEE89525C084371F
:10FD3000A1F42ED02DD0182F2BD03FD0E701012FCA
:10FD4000FE0186911DD021960150D1F70894E11C47
:10FD5000F11C1150E10EF11C10C0853739F42DD083
:10FD60008EE10ED087E90CD083E09ECF813521F45F
:10FD700024D08AE015D0FFCF20D080E101D06CCF15
:10FD8000982F8091C00085FFFCCF9093C600089506
:10FD9000A8958091C00087FFFCCF8091C600089590
:10FDA000E0E6F0E098E1908380830895279A2F9809
:10FDB00080E0F6DFEE27FF270994EADF803211F4B6
:10FDC00084E1DECFF3CF1F93182FE2DF1150E9F764
:06FDD000F4DF1F9108950D
:040000031000FC00ED
:00000001FF
