:107E0000112484B714BE81FFCCD08EE0C4D085E0AD
:107E10008093810082E08093C00088E18093C1005C
:107E200086E08093C20088E08093C400259A86E0B3
:107E300028E13EEF91E0309385002093840096BBCB
:107E4000B09BFECF1D9AA8958150A9F799249394D1
:107E5000B5E0BB2EA1E1AA2E96D0813421F481E0B9
:107E6000ADD083E01CC0823411F484E103C08534BA
:107E700019F485E0A3D07CC0853561F484D0082F47
:107E800010E081D090E0D82ECC24C02AD12ACC0C8E
:107E9000DD1C6DC0863529F484E090D080E06BD085
:107EA00067C0843609F03EC06ED06DD0082F6BD00D
:107EB0008D2D9927182F803720F483E0F60187BF96
:107EC000E895C2E0D1E05FD089930150E1F7103727
:107ED00020F083E0F60187BFE89507B600FCFDCFF0
:107EE000A601A2E0B1E02C9130E011968C9111979F
:107EF00090E0982F8827822B932B1296FA010C0181
:107F000097BEE89511244E5F5F4FF1E0A238BF079E
:107F100051F7F601B7BEE89507B600FCFDCFA7BE46
:107F2000E89525C08437B1F42ED02DD0E82E2BD083
:107F30003FD0F601FE2C8F010F5F1F4F84911BD0A5
:107F4000FA94F801C1F70894C11CD11CEA94CE0C34
:107F5000D11C0EC0853739F42BD08EE10CD085E9C9
:107F60000AD08FE09CCF813511F48AE014D020D064
:107F700080E101D071CF982F8091C00085FFFCCFA8
:107F80009093C6000895A8958091C00087FFFCCF0C
:107F90008091C6000895E0E6F0E098E19083808348
:107FA0000895259A2D9880E0F6DFEE27FF270994A3
:107FB000EADF803211F484E1DECFF3CF1F93182F74
:0C7FC000E2DF1150E9F7F4DF1F91089593
:0400000300007E007B
:00000001FF
