:101D0000112484B714BE81FF08D18EE002D185E092
:101D10008EBDD49AD29A86E023EC3FEF91E03DBD90
:101D20002CBD9BB9589BFECFCC9AA8958150B9F792
:101D3000CC24C39485E0B82E0FE7A02E1EECD12E44
:101D4000D4D0813421F481E0F5D083E01CC082340A
:101D500011F484E103C0853419F485E0EBD0B3C0FD
:101D6000853561F4C2D0082F10E0BFD090E0F82E86
:101D7000EE24E02AF12AEE0CFF1CA4C0863529F4DB
:101D800084E0D8D080E0A2D09EC0843609F05CC048
:101D9000ACD0ABD0082FA9D0C2E0D1E0A6D08993B7
:101DA0000150E1F783E0F70187BFE895E114F10402
:101DB00041F5809102012091030130E0322F22276A
:101DC00090E0282B392B3093870120938601409196
:101DD0000A0180910B0190E0982F882750E0842B16
:101DE000952B909389018093880124503040209353
:101DF0000A01232F332720930B01A0920201D092D6
:101E0000030107B600FCFDCFA701A2E0B1E02C91D1
:101E100030E011968C91119790E0982F8827822BB3
:101E2000932B1296FA010C01C7BEE89511244E5F60
:101E30005F4FF1E0A234BF0751F7F701B7BEE89555
:101E400007B600FCFDCF3EC0843759F54ED04DD0CB
:101E5000182F4BD069D0E701012F209719F48091FA
:101E6000860114C0C130D10519F4809187010EC0DC
:101E7000C830D10519F48091880108C0C930D10556
:101E800019F48091890102C0FE01849121961ED02F
:101E9000015019F70894E11CF11C1150E10EF11CDE
:101EA00012C0853739F440D08EE110D083E90ED0CE
:101EB0008CE069CF813531F437D080E107D088E0FC
:101EC00028D0FFCF31D080E101D03ACF2AE030E0F6
:101ED0008095089410F4DA9802C0DA9A000015D0C0
:101EE00014D086952A95B1F70895A89529E030E099
:101EF000CB99FECF0AD009D008D08894CB9908940A
:101F00002A9511F08795F7CF08959EE09A95F1F7FD
:101F1000089598E191BD81BD0895D49ADC9880E040
:101F2000F8DFE4E0FF270994E0DF803211F484E178
:101F3000CDCFF3CF1F93182FD8DF1150E9F7F4DF7F
:041F40001F91089550
:0400000300001D00DC
:00000001FF
