:107E0000112484B714BE81FFD3D08EE0CBD085E09F
:107E10008093810082E08093C00088E18093C1005C
:107E200086E08093C20088E08093C400259A86E0B3
:107E300028E13EEF91E0309385002093840096BBCB
:107E4000B09BFECF1D9AA8958150A9F799249394D1
:107E5000B5E0BB2EA1E1AA2E98D0813421F481E0B7
:107E6000B4D083E01CC0823411F484E103C08534B3
:107E700019F485E0AAD07EC0853561F486D0082F3C
:107E800010E083D090E0D82ECC24C02AD12ACC0C8C
:107E9000DD1C6FC0863529F484E097D080E06DD07A
:107EA00069C0843609F03EC070D06FD0082F6DD005
:107EB0008D2D9927182F803720F483E0F60187BF96
:107EC000E895C2E0D1E061D089930150E1F7103725
:107ED00020F083E0F60187BFE89507B600FCFDCFF0
:107EE000A601A2E0B1E02C9130E011968C9111979F
:107EF00090E0982F8827822B932B1296FA010C0181
:107F000097BEE89511244E5F5F4FF1E0A238BF079E
:107F100051F7F601B7BEE89507B600FCFDCFA7BE46
:107F2000E89527C08437B1F430D02FD0E82E2DD07B
:107F300046D0F601FE2C8F010F5F1F4F84911DD09C
:107F4000FA94F801C1F70894C11CD11CEA94CE0C34
:107F5000D11C10C0853739F432D08EE10ED085E9BE
:107F60000CD08FE09CCF813521F429D08AE01AD043
:107F7000FFCF25D080E101D06FCF982F8091C00036
:107F800085FFFCCF9093C6000895A8958091C0000E
:107F900087FFFCCF8091C00084FD01C0A89580912F
:107FA000C6000895E0E6F0E098E1908380830895AC
:107FB000259A2D9880E0F6DFEE27FF270994E5DF6C
:107FC000803211F484E1D9CFF3CF1F93182FDDDF76
:0A7FD0001150E9F7F4DF1F91089546
:0400000300007E007B
:00000001FF
