:107E0000112484B714BE5A9ADD24FF244A9B07C06C
:107E100080910001909101018E59944C19F41092B7
:107E2000000101C0D1D08EE0C9D085E080938100EF
:107E300082E08093C00088E18093C10086E0809357
:107E4000C20088E08093C4006624639415E0812E0C
:107E5000B1E17B2EA3E09A2E9ED0803321F4BBD0DB
:107E6000DD24D3948DC0813421F481E0BCD083E043
:107E70001CC0823411F484E103C0853419F485E018
:107E8000B2D07EC0853561F486D0082F10E083D053
:107E900090E0B82EAA24A02AB12AAA0CBB1C6FC05D
:107EA000863529F484E09FD080E06DD069C08436A7
:107EB00009F03CC070D06FD0082F6DD08B2D992762
:107EC000182F803718F4F50197BEE895C2E0D1E08D
:107ED00062D089930150E1F7103718F0F50197BE91
:107EE000E89507B600FCFDCFA501A2E0B1E02C911A
:107EF00030E011968C91119790E0982F8827822B73
:107F0000932B1296FA010C0167BEE89511244E5F7F
:107F10005F4FF1E0A238BF0751F7F50187BEE89542
:107F200007B600FCFDCF77BEE89529C08437B1F4D1
:107F300032D031D0C82E2FD04ED0F501EC2C8F018D
:107F40000F5F1F4F84911FD0EA94F801C1F7089486
:107F5000A11CB11CCA94AC0CB11C12C0853739F4F9
:107F60003AD08EE110D085E90ED08FE09ECF8135DA
:107F700031F431D080E107D088E020D0FFCF2BD082
:107F800080E101D069CF982F8091C00085FFFCCFA0
:107F90009093C6000895A8959F2D21E007C09430C6
:107FA00028F4B09B02C026BB9F5FA8958091C000BB
:107FB00087FFF5CFF92E8091C6000895E0E6F0E046
:107FC00098E1908380830895269A2E9880E0F6DFCA
:107FD000EE27FF270994DFDF803211F484E1D3CF4D
:107FE000D110F2CF08951F93182FD5DF1150E9F764
:067FF000F2DF1F9108956D
:0400000300007E007B
:00000001FF
