:101E0000112484B714BE5A9ADD24FF244A9B07C0CC
:101E100080910001909101018E59944C19F4109217
:101E2000000101C0CFD08EE0C7D085E08093810053
:101E300082E08093C00088E18093C10086E08093B7
:101E4000C20088E08093C4007724739415E0612E6B
:101E5000B1E18B2EA3E09A2E9CD0803321F4B9D02F
:101E6000DD24D3948BC0813421F481E0BAD083E0A7
:101E70001CC0823411F484E103C0853419F485E078
:101E8000B0D07CC0853561F484D0082F10E081D0BB
:101E900090E0B82EAA24A02AB12AAA0CBB1C6DC0BF
:101EA000863529F484E09DD080E06BD067C084360D
:101EB00009F03CC06ED06DD0082F6BD08B2D9927C8
:101EC000182F883118F4F50197BEE895C2E0D1E0EB
:101ED00060D089930150E1F7183118F0F50197BEF1
:101EE000E89507B600FCFDCFA501A2E0B1E02C917A
:101EF00030E011968C91119790E0982F8827822BD3
:101F0000932B1296FA010C0177BEE89511244E5FCF
:101F10005F4FF1E0A234BF0751F7F50167BEE895C6
:101F200007B600FCFDCF87BEE89527C08437B1F423
:101F300030D02FD0C82E2DD04CD0F501EC2C8F01F5
:101F40000F5F1F4F84911DD0EA94F801C1F70894E8
:101F5000A11CB11CCA94AC0CB11C10C0853739F45B
:101F600038D08EE10ED083E90CD08AE09ECF813547
:101F700021F42FD08AE020D001C02BD080E101D005
:101F80006BCF982F8091C00085FFFCCF9093C60047
:101F90000895A8959F2D21E007C0943028F4B09BA8
:101FA00002C026BB9F5FA8958091C00087FFF5CF38
:101FB000F92E8091C6000895E0E6F0E098E1908364
:101FC00080830895269A2E9880E0F6DFEE27FF277B
:101FD0000994DFDF803211F484E1D3CFD110F2CF46
:101FE00008951F93182FD5DF1150E9F7F2DF1F91E5
:021FF000089552
:0400000300001E00DB
:00000001FF
