:101D0000112484B714BE81FF04D18EE0FED085E09B
:101D10008EBDD29AD49A86E023EC3FEF91E03DBD90
:101D20002CBD9BB9589BFECFCC9AA8958150B9F792
:101D3000BB24B39485E0A82E0FE7D02E1EECC12E55
:101D4000D0D0813421F481E0F1D083E01CC0823412
:101D500011F484E103C0853419F485E0E7D0AFC005
:101D6000853561F4BED0082F10E0BBD090E0F82E8E
:101D7000EE24E02AF12AEE0CFF1CA0C0863529F4DF
:101D800084E0D4D080E09ED09AC0843609F05CC054
:101D9000A8D0A7D0082FA5D0C2E0D1E0A2D08993C7
:101DA0000150E1F783E0F70187BFE895E114F10402
:101DB00041F5809102012091030130E0322F22276A
:101DC00090E0282B392B3093870120938601409196
:101DD0000A0180910B0190E0982F882750E0842B16
:101DE000952B909389018093880124503040209353
:101DF0000A01232F332720930B01D0920201C092B6
:101E0000030107B600FCFDCFA701A2E0B1E02C91D1
:101E100030E011968C91119790E0982F8827822BB3
:101E2000932B1296FA010C01B7BEE89511244E5F70
:101E30005F4FF1E0A234BF0751F7F701A7BEE89565
:101E400007B600FCFDCF3AC0843759F54AD049D0D7
:101E5000182F47D065D0E701012F209719F4809102
:101E6000860114C0C130D10519F4809187010EC0DC
:101E7000C830D10519F48091880108C0C930D10556
:101E800019F48091890102C0FE01849121961AD033
:101E9000015019F70894E11CF11C1150E10EF11CDE
:101EA0000EC0853739F43CD08EE10CD083E90AD0DE
:101EB0008CE069CF813511F488E027D031D080E102
:101EC00001D03ECF2AE030E08095089410F4DA98F3
:101ED00002C0DA9A000015D014D086952A95B1F781
:101EE0000895A89529E030E0CB99FECF0AD009D01B
:101EF00008D08894CB9908942A9511F08795F7CF4C
:101F000008959EE09A95F1F7089598E191BD81BDFD
:101F10000895D49ADC9880E0F8DFE4E0FF27099484
:101F2000E0DF803211F484E1CDCFF3CF1F93182F7F
:0C1F3000D8DF1150E9F7F4DF1F9108958D
:0400000300001D00DC
:00000001FF
