:107E0000112404B714BE8EE0D2D085E080938100A7
:107E100082E08093C00088E18093C10086E0809377
:107E2000C20088E08093C4005A9ADD24FF2489B1FF
:107E300014E0E12EE82280910001909101018E5919
:107E4000944C21F410920001EE2402C001FFB5D041
:107E500066246394B3E05B2EA5E07A2EF1E18F2EC9
:107E600090D0803321F4B0D0DD24D3947FC081340E
:107E700021F481E0B1D083E01CC0823411F484E1AC
:107E800003C0853419F485E0A7D070C0853561F44E
:107E900078D0082F10E075D090E0B82EAA24A02A40
:107EA000B12AAA0CBB1C61C0863529F484E094D0A9
:107EB00080E05FD05BC0843609F032C062D061D010
:107EC000082F5FD0C2E0D1E05CD089930150E1F788
:107ED000F50157BEE89507B600FCFDCFA501A2E06D
:107EE000B1E02C9130E011968C91119790E0982F91
:107EF0008827822B932B1296FA010C0167BEE89516
:107F000011244E5F5F4FF1E0A238BF0751F7F50132
:107F100077BEE89507B600FCFDCF87BEE89525C083
:107F20008437B1F42ED02DD0982E2BD04DD0F50122
:107F3000C92C8F010F5F1F4F84911BD0CA94F80189
:107F4000C1F70894A11CB11C9A94A90CB11C0EC0D5
:107F5000853739F439D08EE10CD085E90AD08FE02D
:107F6000A8CF813511F488E022D02ED080E101D055
:107F700077CF982F8091C00085FFFCCF9093C600EB
:107F80000895A8952E2D9F2D31E009C0222339F4A4
:107F9000943028F4B09B02C036BB9F5FA8958091B7
:107FA000C00087FFF3CFF92E8091C6000895E0E668
:107FB000F0E098E1908380830895269A2E9880E0DF
:107FC000F6DFEE27FF270994DCDF803211F484E12D
:107FD000D0CFD110F2CF08951F93182FD2DF1150B8
:087FE000E9F7F2DF1F9108959B
:0400000300007E007B
:00000001FF
