:020000021000EC
:10FC0000112414B714BE8EE0CCD085E0809381001F
:10FC100082E08093C00088E18093C10086E08093F9
:10FC2000C20080E18093C40011FFC1D0279A86E012
:10FC300020E33CEF91E0309385002093840096BB55
:10FC4000B09BFECF1F9AA8958150A9F7CC24C394EE
:10FC5000A5E0BA2EF1E1DF2E9CD0813419F481E0C9
:10FC6000B3D085C0823411F484E103C0853419F423
:10FC700085E0AAD083C0853591F48BD0082F10E0A1
:10FC800088D090E0982F8827802B912B292F221F36
:10FC90002227221F2BBF7C01EE0CFF1C6EC0863575
:10FCA00029F484E091D080E06CD068C0843609F0FB
:10FCB00041C06FD06ED0182F6CD080E0E81680EE77
:10FCC000F80620F483E0F70187BFE895C2E0D2E0B0
:10FCD00060D089931150E1F7F0E0EF16F0EEFF06E7
:10FCE00020F083E0F70187BFE89507B600FCFDCF61
:10FCF000A701A2E0B2E02C9130E011968C9111970F
:10FD000090E0982F8827822B932B1296FA010C01F2
:10FD1000C7BEE89511244E5F5F4FF3E0A230BF07E6
:10FD200051F7F701B7BEE89507B600FCFDCFD7BE87
:10FD3000E89523C08437A1F42CD02BD0082F29D0EC
:10FD40003DD0E701102FFE0186911BD02196115066
:10FD5000D1F70894E11CF11C0150E00EF11C0EC01B
:10FD6000853739F42BD08EE10CD087E90AD083E0B7
:10FD70009BCF813511F488E014D020D080E101D0F0
:10FD80006BCF982F8091C00085FFFCCF9093C60069
:10FD90000895A8958091C00087FFFCCF8091C60090
:10FDA0000895E0E6F0E098E1908380830895279A33
:10FDB0002F9880E0F6DFEE27FF270994EADF8032F4
:10FDC00011F484E1DECFF3CF1F93182FE2DF11503F
:08FDD000E9F7F4DF1F9108952B
:040000031000FC00ED
:00000001FF
