:101E000011248FE594E09EBF8DBF14B714BE8EE001
:101E1000BFD085E08EBD82E08BB988E18AB986E8C3
:101E200080BD80E189B911FFB7D0BD9A96E020E36B
:101E30003CEF54E040E23DBD2CBD58BF08B602FE69
:101E4000FDCF88B3842788BBA8959150A1F799242A
:101E50009394A5E0AA2EF1E1BF2E95D0813421F410
:101E600081E0A7D083E01CC0823411F484E103C078
:101E7000853419F485E09DD07FC0853561F483D029
:101E8000082F10E080D090E0F82EEE24E02AF12A0E
:101E9000EE0CFF1C70C0863529F484E08AD080E007
:101EA0006ED06AC0843609F041C06DD06CD0182F56
:101EB0006AD080E0E81688E1F80620F483E0F701B4
:101EC00087BFE895C2E0D1E05ED089931150E1F779
:101ED000F0E0EF16F8E1FF0620F083E0F70187BF9E
:101EE000E89507B600FCFDCFA701A2E0B1E02C9178
:101EF00030E011968C91119790E0982F8827822BD3
:101F0000932B1296FA010C0197BEE89511244E5FAF
:101F10005F4FF1E0A234BF0751F7F701A7BEE89584
:101F200007B600FCFDCFB7BEE89525C08437B1F4F5
:101F30002AD029D0C82E27D036D0F701DC2C8F012B
:101F40000F5F1F4F84911BD0DA94F801C1F70894FA
:101F5000E11CF11CCA94EC0CF11C0EC0853739F45D
:101F600022D08EE10CD083E90AD087E099CF813569
:101F700011F488E00DD017D080E101D06ECF5D9BC9
:101F8000FECF8CB90895A8955F9BFECF8CB10895C4
:101F900098E191BD81BD0895BD9AC59880E0F8DFB4
:101FA000EE27FF270994EFDF803211F484E1E7CFB9
:101FB000F3CF1F93182FE7DF1150E9F7F4DF1F91DC
:021FC000089582
:0400000300001E00DB
:00000001FF
