:10FC0000112414B714BE8EE0C9D085E08093810022
:10FC100082E08093C00088E18093C10086E08093F9
:10FC2000C20080E18093C40011FFBED0209A86E01C
:10FC300020E33CEF91E0309385002093840096BB55
:10FC4000B09BFECF189AA8958150A9F79924939458
:10FC5000A5E0AA2EF1E1BF2E99D0813421F481E0F4
:10FC6000B0D083E01CC0823411F484E103C0853439
:10FC700019F485E0A6D07FC0853561F487D0082FC0
:10FC800010E084D090E0F82EEE24E02AF12AEE0C69
:10FC9000FF1C70C0863529F484E093D080E06ED0DC
:10FCA0006AC0843609F041C071D070D0182F6ED070
:10FCB00080E0E81680EEF80620F483E0F70187BFC5
:10FCC000E895C2E0D1E062D089931150E1F7F0E00D
:10FCD000EF16F0EEFF0620F083E0F70187BFE8950E
:10FCE00007B600FCFDCFA701A2E0B1E02C9130E007
:10FCF00011968C91119790E0982F8827822B932B47
:10FD00001296FA010C0197BEE89511244E5F5F4FE1
:10FD1000F2E0A230BF0751F7F701A7BEE89507B69A
:10FD200000FCFDCFB7BEE89525C08437B1F42ED0D6
:10FD30002DD0C82E2BD03FD0F701DC2C8F010F5FC8
:10FD40001F4F84911BD0DA94F801C1F70894E11C8D
:10FD5000F11CCA94EC0CF11C0EC0853739F42BD081
:10FD60008EE10CD086E90AD089E099CF813511F473
:10FD700088E014D020D080E101D06ECF982F809100
:10FD8000C00085FFFCCF9093C6000895A895809190
:10FD9000C00087FFFCCF8091C6000895E0E6F0E048
:10FDA00098E1908380830895209A289880E0F6DF78
:10FDB000EE27FF270994EADF803211F484E1DECFD9
:10FDC000F3CF1F93182FE2DF1150E9F7F4DF1F91F3
:02FDD000089594
:040000030000FC00FD
:00000001FF
